{
  "contractName": "AircraftAdmin",
  "abi": [
    {
      "constant": true,
      "inputs": [
        {
          "name": "",
          "type": "address"
        }
      ],
      "name": "Admins",
      "outputs": [
        {
          "name": "name",
          "type": "string"
        },
        {
          "name": "id",
          "type": "address"
        }
      ],
      "payable": false,
      "stateMutability": "view",
      "type": "function"
    },
    {
      "constant": true,
      "inputs": [
        {
          "name": "",
          "type": "address"
        },
        {
          "name": "",
          "type": "address"
        }
      ],
      "name": "AdminTomaintainer",
      "outputs": [
        {
          "name": "",
          "type": "uint256"
        }
      ],
      "payable": false,
      "stateMutability": "view",
      "type": "function"
    },
    {
      "constant": false,
      "inputs": [
        {
          "name": "_name",
          "type": "string"
        }
      ],
      "name": "Adminsignup",
      "outputs": [],
      "payable": false,
      "stateMutability": "nonpayable",
      "type": "function"
    },
    {
      "constant": true,
      "inputs": [],
      "name": "getinfoAdmin",
      "outputs": [
        {
          "name": "_name",
          "type": "string"
        },
        {
          "name": "id",
          "type": "address"
        },
        {
          "name": "maintainer",
          "type": "address[]"
        }
      ],
      "payable": false,
      "stateMutability": "view",
      "type": "function"
    }
  ],
  "bytecode": "0x608060405234801561001057600080fd5b506109bb806100206000396000f3fe608060405260043610610062576000357c0100000000000000000000000000000000000000000000000000000000900463ffffffff1680630e061288146100675780630ec6d58a1461012f5780636c895e411461022c578063ac6a95c4146102b1575b600080fd5b34801561007357600080fd5b5061012d6004803603602081101561008a57600080fd5b81019080803590602001906401000000008111156100a757600080fd5b8201836020820111156100b957600080fd5b803590602001918460018302840111640100000000831117156100db57600080fd5b91908080601f016020809104026020016040519081016040528093929190818152602001838380828437600081840152601f19601f8201169050808301925050505050505091929192905050506103bc565b005b34801561013b57600080fd5b5061017e6004803603602081101561015257600080fd5b81019080803573ffffffffffffffffffffffffffffffffffffffff1690602001909291905050506104e3565b60405180806020018373ffffffffffffffffffffffffffffffffffffffff1673ffffffffffffffffffffffffffffffffffffffff168152602001828103825284818151815260200191508051906020019080838360005b838110156101f05780820151818401526020810190506101d5565b50505050905090810190601f16801561021d5780820380516001836020036101000a031916815260200191505b50935050505060405180910390f35b34801561023857600080fd5b5061029b6004803603604081101561024f57600080fd5b81019080803573ffffffffffffffffffffffffffffffffffffffff169060200190929190803573ffffffffffffffffffffffffffffffffffffffff1690602001909291905050506105bf565b6040518082815260200191505060405180910390f35b3480156102bd57600080fd5b506102c66105e4565b60405180806020018473ffffffffffffffffffffffffffffffffffffffff1673ffffffffffffffffffffffffffffffffffffffff16815260200180602001838103835286818151815260200191508051906020019080838360005b8381101561033c578082015181840152602081019050610321565b50505050905090810190601f1680156103695780820380516001836020036101000a031916815260200191505b50838103825284818151815260200191508051906020019060200280838360005b838110156103a557808201518184015260208101905061038a565b505050509050019550505050505060405180910390f35b6060604051908101604052808281526020013373ffffffffffffffffffffffffffffffffffffffff168152602001600060405190808252806020026020018201604052801561041a5781602001602082028038833980820191505090505b508152506000803373ffffffffffffffffffffffffffffffffffffffff1673ffffffffffffffffffffffffffffffffffffffff16815260200190815260200160002060008201518160000190805190602001906104789291906107e5565b5060208201518160010160006101000a81548173ffffffffffffffffffffffffffffffffffffffff021916908373ffffffffffffffffffffffffffffffffffffffff16021790555060408201518160020190805190602001906104dc929190610865565b5090505050565b6000602052806000526040600020600091509050806000018054600181600116156101000203166002900480601f01602080910402602001604051908101604052809291908181526020018280546001816001161561010002031660029004801561058f5780601f106105645761010080835404028352916020019161058f565b820191906000526020600020905b81548152906001019060200180831161057257829003601f168201915b5050505050908060010160009054906101000a900473ffffffffffffffffffffffffffffffffffffffff16905082565b6001602052816000526040600020602052806000526040600020600091509150505481565b6060600060606105f26108ef565b6000803373ffffffffffffffffffffffffffffffffffffffff1673ffffffffffffffffffffffffffffffffffffffff16815260200190815260200160002060606040519081016040529081600082018054600181600116156101000203166002900480601f0160208091040260200160405190810160405280929190818152602001828054600181600116156101000203166002900480156106d55780601f106106aa576101008083540402835291602001916106d5565b820191906000526020600020905b8154815290600101906020018083116106b857829003601f168201915b505050505081526020016001820160009054906101000a900473ffffffffffffffffffffffffffffffffffffffff1673ffffffffffffffffffffffffffffffffffffffff1673ffffffffffffffffffffffffffffffffffffffff168152602001600282018054806020026020016040519081016040528092919081815260200182805480156107b957602002820191906000526020600020905b8160009054906101000a900473ffffffffffffffffffffffffffffffffffffffff1673ffffffffffffffffffffffffffffffffffffffff168152602001906001019080831161076f575b505050505081525050905080600001518160200151826040015182925080905093509350935050909192565b828054600181600116156101000203166002900490600052602060002090601f016020900481019282601f1061082657805160ff1916838001178555610854565b82800160010185558215610854579182015b82811115610853578251825591602001919060010190610838565b5b5090506108619190610927565b5090565b8280548282559060005260206000209081019282156108de579160200282015b828111156108dd5782518260006101000a81548173ffffffffffffffffffffffffffffffffffffffff021916908373ffffffffffffffffffffffffffffffffffffffff16021790555091602001919060010190610885565b5b5090506108eb919061094c565b5090565b60606040519081016040528060608152602001600073ffffffffffffffffffffffffffffffffffffffff168152602001606081525090565b61094991905b8082111561094557600081600090555060010161092d565b5090565b90565b61098c91905b8082111561098857600081816101000a81549073ffffffffffffffffffffffffffffffffffffffff021916905550600101610952565b5090565b9056fea165627a7a7230582080774a94ed1046030525bce5ee07f5d38dbbeffc74da1fb1dd334520f6542bff0029",
  "source": "\npragma solidity >=0.4.21 <0.7.0;  \n\ncontract AircraftAdmin{\n\nmapping(address => Admin) public Admins;     \nmapping(address=> mapping(address=>uint)) public AdminTomaintainer;       \n\nstruct Admin{\n\n    string name;               \n    address id;    \n    address[] maintainer;     \n  }\n\n   function Adminsignup( string memory _name) public {\n\n  Admins[msg.sender] = Admin({name : _name, id:msg.sender,maintainer : new address[](0)});\n   \n  }  \n\n  function getinfoAdmin() public view returns(string memory _name,address id,address[] memory maintainer){\n      Admin memory s = Admins[msg.sender] ;\n       return(s.name,s.id,s.maintainer);\n  }\n  \n}",
  "sourcePath": "/home/smritigupta/aeroplane-maintaince/src/contracts/AircraftAdmin.sol",
  "compiler": {
    "name": "solc",
    "version": "0.5.0+commit.1d4f565a.Emscripten.clang"
  },
  "schemaVersion": "3.0.1",
  "updatedAt": "2020-06-21T08:43:50.810Z",
  "devdoc": {
    "methods": {}
  },
  "userdoc": {
    "methods": {}
  }
}