{
  "contractName": "Aircraft",
  "abi": [
    {
      "constant": true,
      "inputs": [
        {
          "name": "",
          "type": "address"
        }
      ],
      "name": "maintainers",
      "outputs": [
        {
          "name": "name",
          "type": "string"
        },
        {
          "name": "age",
          "type": "uint8"
        },
        {
          "name": "id",
          "type": "address"
        },
        {
          "name": "file",
          "type": "string"
        }
      ],
      "payable": false,
      "stateMutability": "view",
      "type": "function",
      "signature": "0x0823c562"
    },
    {
      "constant": false,
      "inputs": [
        {
          "name": "_name",
          "type": "string"
        }
      ],
      "name": "Adminsignup",
      "outputs": [],
      "payable": false,
      "stateMutability": "nonpayable",
      "type": "function",
      "signature": "0x0e061288"
    },
    {
      "constant": true,
      "inputs": [
        {
          "name": "",
          "type": "address"
        }
      ],
      "name": "Admins",
      "outputs": [
        {
          "name": "name",
          "type": "string"
        },
        {
          "name": "id",
          "type": "address"
        }
      ],
      "payable": false,
      "stateMutability": "view",
      "type": "function",
      "signature": "0x0ec6d58a"
    },
    {
      "constant": true,
      "inputs": [
        {
          "name": "",
          "type": "address"
        },
        {
          "name": "",
          "type": "uint256"
        }
      ],
      "name": "maintainerList",
      "outputs": [
        {
          "name": "",
          "type": "address"
        }
      ],
      "payable": false,
      "stateMutability": "view",
      "type": "function",
      "signature": "0x1428bf38"
    },
    {
      "constant": false,
      "inputs": [
        {
          "name": "_name",
          "type": "string"
        },
        {
          "name": "_age",
          "type": "uint8"
        }
      ],
      "name": "maintainersignup",
      "outputs": [],
      "payable": false,
      "stateMutability": "nonpayable",
      "type": "function",
      "signature": "0x1dcab44b"
    },
    {
      "constant": true,
      "inputs": [
        {
          "name": "",
          "type": "address"
        },
        {
          "name": "",
          "type": "address"
        }
      ],
      "name": "maintainerToAdmin",
      "outputs": [
        {
          "name": "",
          "type": "uint256"
        }
      ],
      "payable": false,
      "stateMutability": "view",
      "type": "function",
      "signature": "0x2ec1a7a7"
    },
    {
      "constant": true,
      "inputs": [],
      "name": "maintainerCount",
      "outputs": [
        {
          "name": "",
          "type": "uint256"
        }
      ],
      "payable": false,
      "stateMutability": "view",
      "type": "function",
      "signature": "0x31c31820"
    },
    {
      "constant": true,
      "inputs": [
        {
          "name": "",
          "type": "address"
        }
      ],
      "name": "hashInfo",
      "outputs": [
        {
          "name": "",
          "type": "string"
        }
      ],
      "payable": false,
      "stateMutability": "view",
      "type": "function",
      "signature": "0x55ec8bdd"
    },
    {
      "constant": true,
      "inputs": [
        {
          "name": "",
          "type": "address"
        },
        {
          "name": "",
          "type": "address"
        }
      ],
      "name": "AdminTomaintainer",
      "outputs": [
        {
          "name": "",
          "type": "uint256"
        }
      ],
      "payable": false,
      "stateMutability": "view",
      "type": "function",
      "signature": "0x6c895e41"
    },
    {
      "constant": true,
      "inputs": [],
      "name": "owner",
      "outputs": [
        {
          "name": "",
          "type": "address"
        }
      ],
      "payable": false,
      "stateMutability": "view",
      "type": "function",
      "signature": "0x8da5cb5b"
    },
    {
      "constant": true,
      "inputs": [
        {
          "name": "",
          "type": "address"
        }
      ],
      "name": "maintainerToFile",
      "outputs": [
        {
          "name": "",
          "type": "string"
        }
      ],
      "payable": false,
      "stateMutability": "view",
      "type": "function",
      "signature": "0x9a54897e"
    },
    {
      "constant": true,
      "inputs": [],
      "name": "getinfoAdmin",
      "outputs": [
        {
          "name": "_name",
          "type": "string"
        },
        {
          "name": "id",
          "type": "address"
        },
        {
          "name": "maintainer",
          "type": "address[]"
        }
      ],
      "payable": false,
      "stateMutability": "view",
      "type": "function",
      "signature": "0xac6a95c4"
    },
    {
      "constant": true,
      "inputs": [],
      "name": "getinfomaintaince",
      "outputs": [
        {
          "name": "_name",
          "type": "string"
        },
        {
          "name": "_age",
          "type": "uint8"
        },
        {
          "name": "id",
          "type": "address"
        },
        {
          "name": "__file",
          "type": "string"
        }
      ],
      "payable": false,
      "stateMutability": "view",
      "type": "function",
      "signature": "0xd28ca106"
    },
    {
      "constant": true,
      "inputs": [
        {
          "name": "",
          "type": "address"
        },
        {
          "name": "",
          "type": "uint256"
        }
      ],
      "name": "adminList",
      "outputs": [
        {
          "name": "",
          "type": "address"
        }
      ],
      "payable": false,
      "stateMutability": "view",
      "type": "function",
      "signature": "0xd8b47b4c"
    },
    {
      "inputs": [],
      "payable": false,
      "stateMutability": "nonpayable",
      "type": "constructor",
      "signature": "constructor"
    },
    {
      "constant": true,
      "inputs": [
        {
          "name": "_user",
          "type": "address"
        }
      ],
      "name": "checkProfile",
      "outputs": [
        {
          "name": "",
          "type": "string"
        },
        {
          "name": "",
          "type": "string"
        }
      ],
      "payable": false,
      "stateMutability": "view",
      "type": "function",
      "signature": "0x01d99258"
    },
    {
      "constant": false,
      "inputs": [
        {
          "name": "_hashId",
          "type": "string"
        }
      ],
      "name": "addFile",
      "outputs": [],
      "payable": false,
      "stateMutability": "nonpayable",
      "type": "function",
      "signature": "0xeb9b9b64"
    },
    {
      "constant": false,
      "inputs": [
        {
          "name": "_id",
          "type": "address"
        }
      ],
      "name": "grantAccessToAdmin",
      "outputs": [],
      "payable": false,
      "stateMutability": "nonpayable",
      "type": "function",
      "signature": "0x5c21081c"
    },
    {
      "constant": true,
      "inputs": [
        {
          "name": "_id",
          "type": "address"
        }
      ],
      "name": "getmaintainerInfoForAdmin",
      "outputs": [
        {
          "name": "_name",
          "type": "string"
        },
        {
          "name": "age",
          "type": "uint256"
        },
        {
          "name": "id",
          "type": "address"
        },
        {
          "name": "files",
          "type": "string"
        }
      ],
      "payable": false,
      "stateMutability": "view",
      "type": "function",
      "signature": "0x7d82d2b7"
    },
    {
      "constant": true,
      "inputs": [
        {
          "name": "_id",
          "type": "address"
        },
        {
          "name": "_fileHashId",
          "type": "string"
        }
      ],
      "name": "getFileInfomaintainer",
      "outputs": [
        {
          "name": "name",
          "type": "string"
        },
        {
          "name": "age",
          "type": "uint8"
        },
        {
          "name": "id",
          "type": "address"
        },
        {
          "name": "_file",
          "type": "string"
        },
        {
          "name": "_list",
          "type": "address[]"
        }
      ],
      "payable": false,
      "stateMutability": "view",
      "type": "function",
      "signature": "0x9df4fc24"
    }
  ],
  "bytecode": "0x6080604052600060085534801561001557600080fd5b5033600760006101000a81548173ffffffffffffffffffffffffffffffffffffffff021916908373ffffffffffffffffffffffffffffffffffffffff160217905550612dcf806100666000396000f3fe608060405260043610610107576000357c0100000000000000000000000000000000000000000000000000000000900463ffffffff16806301d992581461010c5780630823c562146102425780630e061288146103b85780630ec6d58a146104805780631428bf381461057d5780631dcab44b146106185780632ec1a7a7146106ed57806331c318201461077257806355ec8bdd1461079d5780635c21081c146108675780636c895e41146108b85780637d82d2b71461093d5780638da5cb5b14610aad5780639a54897e14610b045780639df4fc2414610bce578063ac6a95c414610e23578063d28ca10614610f2e578063d8b47b4c1461106a578063eb9b9b6414611105575b600080fd5b34801561011857600080fd5b5061015b6004803603602081101561012f57600080fd5b81019080803573ffffffffffffffffffffffffffffffffffffffff1690602001909291905050506111cd565b604051808060200180602001838103835285818151815260200191508051906020019080838360005b8381101561019f578082015181840152602081019050610184565b50505050905090810190601f1680156101cc5780820380516001836020036101000a031916815260200191505b50838103825284818151815260200191508051906020019080838360005b838110156102055780820151818401526020810190506101ea565b50505050905090810190601f1680156102325780820380516001836020036101000a031916815260200191505b5094505050505060405180910390f35b34801561024e57600080fd5b506102916004803603602081101561026557600080fd5b81019080803573ffffffffffffffffffffffffffffffffffffffff1690602001909291905050506116a1565b60405180806020018560ff1660ff1681526020018473ffffffffffffffffffffffffffffffffffffffff1673ffffffffffffffffffffffffffffffffffffffff16815260200180602001838103835287818151815260200191508051906020019080838360005b838110156103135780820151818401526020810190506102f8565b50505050905090810190601f1680156103405780820380516001836020036101000a031916815260200191505b50838103825284818151815260200191508051906020019080838360005b8381101561037957808201518184015260208101905061035e565b50505050905090810190601f1680156103a65780820380516001836020036101000a031916815260200191505b50965050505050505060405180910390f35b3480156103c457600080fd5b5061047e600480360360208110156103db57600080fd5b81019080803590602001906401000000008111156103f857600080fd5b82018360208201111561040a57600080fd5b8035906020019184600183028401116401000000008311171561042c57600080fd5b91908080601f016020809104026020016040519081016040528093929190818152602001838380828437600081840152601f19601f82011690508083019250505050505050919291929050505061182e565b005b34801561048c57600080fd5b506104cf600480360360208110156104a357600080fd5b81019080803573ffffffffffffffffffffffffffffffffffffffff169060200190929190505050611902565b60405180806020018373ffffffffffffffffffffffffffffffffffffffff1673ffffffffffffffffffffffffffffffffffffffff168152602001828103825284818151815260200191508051906020019080838360005b83811015610541578082015181840152602081019050610526565b50505050905090810190601f16801561056e5780820380516001836020036101000a031916815260200191505b50935050505060405180910390f35b34801561058957600080fd5b506105d6600480360360408110156105a057600080fd5b81019080803573ffffffffffffffffffffffffffffffffffffffff169060200190929190803590602001909291905050506119de565b604051808273ffffffffffffffffffffffffffffffffffffffff1673ffffffffffffffffffffffffffffffffffffffff16815260200191505060405180910390f35b34801561062457600080fd5b506106eb6004803603604081101561063b57600080fd5b810190808035906020019064010000000081111561065857600080fd5b82018360208201111561066a57600080fd5b8035906020019184600183028401116401000000008311171561068c57600080fd5b91908080601f016020809104026020016040519081016040528093929190818152602001838380828437600081840152601f19601f820116905080830192505050505050509192919290803560ff169060200190929190505050611a2b565b005b3480156106f957600080fd5b5061075c6004803603604081101561071057600080fd5b81019080803573ffffffffffffffffffffffffffffffffffffffff169060200190929190803573ffffffffffffffffffffffffffffffffffffffff169060200190929190505050611b5d565b6040518082815260200191505060405180910390f35b34801561077e57600080fd5b50610787611b82565b6040518082815260200191505060405180910390f35b3480156107a957600080fd5b506107ec600480360360208110156107c057600080fd5b81019080803573ffffffffffffffffffffffffffffffffffffffff169060200190929190505050611b88565b6040518080602001828103825283818151815260200191508051906020019080838360005b8381101561082c578082015181840152602081019050610811565b50505050905090810190601f1680156108595780820380516001836020036101000a031916815260200191505b509250505060405180910390f35b34801561087357600080fd5b506108b66004803603602081101561088a57600080fd5b81019080803573ffffffffffffffffffffffffffffffffffffffff169060200190929190505050611c38565b005b3480156108c457600080fd5b50610927600480360360408110156108db57600080fd5b81019080803573ffffffffffffffffffffffffffffffffffffffff169060200190929190803573ffffffffffffffffffffffffffffffffffffffff16906020019092919050505061201c565b6040518082815260200191505060405180910390f35b34801561094957600080fd5b5061098c6004803603602081101561096057600080fd5b81019080803573ffffffffffffffffffffffffffffffffffffffff169060200190929190505050612041565b60405180806020018581526020018473ffffffffffffffffffffffffffffffffffffffff1673ffffffffffffffffffffffffffffffffffffffff16815260200180602001838103835287818151815260200191508051906020019080838360005b83811015610a085780820151818401526020810190506109ed565b50505050905090810190601f168015610a355780820380516001836020036101000a031916815260200191505b50838103825284818151815260200191508051906020019080838360005b83811015610a6e578082015181840152602081019050610a53565b50505050905090810190601f168015610a9b5780820380516001836020036101000a031916815260200191505b50965050505050505060405180910390f35b348015610ab957600080fd5b50610ac261230e565b604051808273ffffffffffffffffffffffffffffffffffffffff1673ffffffffffffffffffffffffffffffffffffffff16815260200191505060405180910390f35b348015610b1057600080fd5b50610b5360048036036020811015610b2757600080fd5b81019080803573ffffffffffffffffffffffffffffffffffffffff169060200190929190505050612334565b6040518080602001828103825283818151815260200191508051906020019080838360005b83811015610b93578082015181840152602081019050610b78565b50505050905090810190601f168015610bc05780820380516001836020036101000a031916815260200191505b509250505060405180910390f35b348015610bda57600080fd5b50610cb460048036036040811015610bf157600080fd5b81019080803573ffffffffffffffffffffffffffffffffffffffff16906020019092919080359060200190640100000000811115610c2e57600080fd5b820183602082011115610c4057600080fd5b80359060200191846001830284011164010000000083111715610c6257600080fd5b91908080601f016020809104026020016040519081016040528093929190818152602001838380828437600081840152601f19601f8201169050808301925050505050505091929192905050506123e4565b60405180806020018660ff1660ff1681526020018573ffffffffffffffffffffffffffffffffffffffff1673ffffffffffffffffffffffffffffffffffffffff1681526020018060200180602001848103845289818151815260200191508051906020019080838360005b83811015610d3a578082015181840152602081019050610d1f565b50505050905090810190601f168015610d675780820380516001836020036101000a031916815260200191505b50848103835286818151815260200191508051906020019080838360005b83811015610da0578082015181840152602081019050610d85565b50505050905090810190601f168015610dcd5780820380516001836020036101000a031916815260200191505b50848103825285818151815260200191508051906020019060200280838360005b83811015610e09578082015181840152602081019050610dee565b505050509050019850505050505050505060405180910390f35b348015610e2f57600080fd5b50610e386124e6565b60405180806020018473ffffffffffffffffffffffffffffffffffffffff1673ffffffffffffffffffffffffffffffffffffffff16815260200180602001838103835286818151815260200191508051906020019080838360005b83811015610eae578082015181840152602081019050610e93565b50505050905090810190601f168015610edb5780820380516001836020036101000a031916815260200191505b50838103825284818151815260200191508051906020019060200280838360005b83811015610f17578082015181840152602081019050610efc565b505050509050019550505050505060405180910390f35b348015610f3a57600080fd5b50610f43612718565b60405180806020018560ff1660ff1681526020018473ffffffffffffffffffffffffffffffffffffffff1673ffffffffffffffffffffffffffffffffffffffff16815260200180602001838103835287818151815260200191508051906020019080838360005b83811015610fc5578082015181840152602081019050610faa565b50505050905090810190601f168015610ff25780820380516001836020036101000a031916815260200191505b50838103825284818151815260200191508051906020019080838360005b8381101561102b578082015181840152602081019050611010565b50505050905090810190601f1680156110585780820380516001836020036101000a031916815260200191505b50965050505050505060405180910390f35b34801561107657600080fd5b506110c36004803603604081101561108d57600080fd5b81019080803573ffffffffffffffffffffffffffffffffffffffff16906020019092919080359060200190929190505050612953565b604051808273ffffffffffffffffffffffffffffffffffffffff1673ffffffffffffffffffffffffffffffffffffffff16815260200191505060405180910390f35b34801561111157600080fd5b506111cb6004803603602081101561112857600080fd5b810190808035906020019064010000000081111561114557600080fd5b82018360208201111561115757600080fd5b8035906020019184600183028401116401000000008311171561117957600080fd5b91908080601f016020809104026020016040519081016040528093929190818152602001838380828437600081840152601f19601f8201169050808301925050505050505091929192905050506129a0565b005b6060806111d8612c0c565b6000808573ffffffffffffffffffffffffffffffffffffffff1673ffffffffffffffffffffffffffffffffffffffff16815260200190815260200160002060806040519081016040529081600082018054600181600116156101000203166002900480601f0160208091040260200160405190810160405280929190818152602001828054600181600116156101000203166002900480156112bb5780601f10611290576101008083540402835291602001916112bb565b820191906000526020600020905b81548152906001019060200180831161129e57829003601f168201915b505050505081526020016001820160009054906101000a900460ff1660ff1660ff1681526020016001820160019054906101000a900473ffffffffffffffffffffffffffffffffffffffff1673ffffffffffffffffffffffffffffffffffffffff1673ffffffffffffffffffffffffffffffffffffffff168152602001600282018054600181600116156101000203166002900480601f0160208091040260200160405190810160405280929190818152602001828054600181600116156101000203166002900480156113d05780601f106113a5576101008083540402835291602001916113d0565b820191906000526020600020905b8154815290600101906020018083116113b357829003601f168201915b50505050508152505090506113e3612c4e565b600460008673ffffffffffffffffffffffffffffffffffffffff1673ffffffffffffffffffffffffffffffffffffffff168152602001908152602001600020604080519081016040529081600082018054600181600116156101000203166002900480601f0160208091040260200160405190810160405280929190818152602001828054600181600116156101000203166002900480156114c65780601f1061149b576101008083540402835291602001916114c6565b820191906000526020600020905b8154815290600101906020018083116114a957829003601f168201915b505050505081526020016001820160009054906101000a900473ffffffffffffffffffffffffffffffffffffffff1673ffffffffffffffffffffffffffffffffffffffff1673ffffffffffffffffffffffffffffffffffffffff168152505090508473ffffffffffffffffffffffffffffffffffffffff16826040015173ffffffffffffffffffffffffffffffffffffffff1614156115a85781600001518090506040805190810160405280600a81526020017f6d61696e7461696e65720000000000000000000000000000000000000000000081525093509350505061169c565b8473ffffffffffffffffffffffffffffffffffffffff16816020015173ffffffffffffffffffffffffffffffffffffffff1614156116295780600001518090506040805190810160405280600581526020017f41646d696e00000000000000000000000000000000000000000000000000000081525093509350505061169c565b6040805190810160405280600781526020017f64656661756c74000000000000000000000000000000000000000000000000008152506040805190810160405280600781526020017f64656661756c74000000000000000000000000000000000000000000000000008152509350935050505b915091565b6000602052806000526040600020600091509050806000018054600181600116156101000203166002900480601f01602080910402602001604051908101604052809291908181526020018280546001816001161561010002031660029004801561174d5780601f106117225761010080835404028352916020019161174d565b820191906000526020600020905b81548152906001019060200180831161173057829003601f168201915b5050505050908060010160009054906101000a900460ff16908060010160019054906101000a900473ffffffffffffffffffffffffffffffffffffffff1690806002018054600181600116156101000203166002900480601f0160208091040260200160405190810160405280929190818152602001828054600181600116156101000203166002900480156118245780601f106117f957610100808354040283529160200191611824565b820191906000526020600020905b81548152906001019060200180831161180757829003601f168201915b5050505050905084565b60408051908101604052808281526020013373ffffffffffffffffffffffffffffffffffffffff16815250600460003373ffffffffffffffffffffffffffffffffffffffff1673ffffffffffffffffffffffffffffffffffffffff16815260200190815260200160002060008201518160000190805190602001906118b4929190612c7e565b5060208201518160010160006101000a81548173ffffffffffffffffffffffffffffffffffffffff021916908373ffffffffffffffffffffffffffffffffffffffff16021790555090505050565b6004602052806000526040600020600091509050806000018054600181600116156101000203166002900480601f0160208091040260200160405190810160405280929190818152602001828054600181600116156101000203166002900480156119ae5780601f10611983576101008083540402835291602001916119ae565b820191906000526020600020905b81548152906001019060200180831161199157829003601f168201915b5050505050908060010160009054906101000a900473ffffffffffffffffffffffffffffffffffffffff16905082565b6006602052816000526040600020818154811015156119f957fe5b906000526020600020016000915091509054906101000a900473ffffffffffffffffffffffffffffffffffffffff1681565b6080604051908101604052808381526020018260ff1681526020013373ffffffffffffffffffffffffffffffffffffffff16815260200160206040519081016040528060008152508152506000803373ffffffffffffffffffffffffffffffffffffffff1673ffffffffffffffffffffffffffffffffffffffff1681526020019081526020016000206000820151816000019080519060200190611ad0929190612c7e565b5060208201518160010160006101000a81548160ff021916908360ff16021790555060408201518160010160016101000a81548173ffffffffffffffffffffffffffffffffffffffff021916908373ffffffffffffffffffffffffffffffffffffffff1602179055506060820151816002019080519060200190611b55929190612c7e565b509050505050565b6001602052816000526040600020602052806000526040600020600091509150505481565b60085481565b60096020528060005260406000206000915090508054600181600116156101000203166002900480601f016020809104026020016040519081016040528092919081815260200182805460018160011615610100020316600290048015611c305780601f10611c0557610100808354040283529160200191611c30565b820191906000526020600020905b815481529060010190602001808311611c1357829003601f168201915b505050505081565b611c40612c0c565b6000803373ffffffffffffffffffffffffffffffffffffffff1673ffffffffffffffffffffffffffffffffffffffff16815260200190815260200160002060806040519081016040529081600082018054600181600116156101000203166002900480601f016020809104026020016040519081016040528092919081815260200182805460018160011615610100020316600290048015611d235780601f10611cf857610100808354040283529160200191611d23565b820191906000526020600020905b815481529060010190602001808311611d0657829003601f168201915b505050505081526020016001820160009054906101000a900460ff1660ff1660ff1681526020016001820160019054906101000a900473ffffffffffffffffffffffffffffffffffffffff1673ffffffffffffffffffffffffffffffffffffffff1673ffffffffffffffffffffffffffffffffffffffff168152602001600282018054600181600116156101000203166002900480601f016020809104026020016040519081016040528092919081815260200182805460018160011615610100020316600290048015611e385780601f10611e0d57610100808354040283529160200191611e38565b820191906000526020600020905b815481529060010190602001808311611e1b57829003601f168201915b5050505050815250509050600360003373ffffffffffffffffffffffffffffffffffffffff1673ffffffffffffffffffffffffffffffffffffffff1681526020019081526020016000208290806001815401808255809150509060018203906000526020600020016000909192909190916101000a81548173ffffffffffffffffffffffffffffffffffffffff021916908373ffffffffffffffffffffffffffffffffffffffff16021790555050600854600160003373ffffffffffffffffffffffffffffffffffffffff1673ffffffffffffffffffffffffffffffffffffffff16815260200190815260200160002060008473ffffffffffffffffffffffffffffffffffffffff1673ffffffffffffffffffffffffffffffffffffffff16815260200190815260200160002081905550600660008373ffffffffffffffffffffffffffffffffffffffff1673ffffffffffffffffffffffffffffffffffffffff1681526020019081526020016000203390806001815401808255809150509060018203906000526020600020016000909192909190916101000a81548173ffffffffffffffffffffffffffffffffffffffff021916908373ffffffffffffffffffffffffffffffffffffffff160217905550506001600854016008819055505050565b6005602052816000526040600020602052806000526040600020600091509150505481565b60606000806060612050612c0c565b6000808773ffffffffffffffffffffffffffffffffffffffff1673ffffffffffffffffffffffffffffffffffffffff16815260200190815260200160002060806040519081016040529081600082018054600181600116156101000203166002900480601f0160208091040260200160405190810160405280929190818152602001828054600181600116156101000203166002900480156121335780601f1061210857610100808354040283529160200191612133565b820191906000526020600020905b81548152906001019060200180831161211657829003601f168201915b505050505081526020016001820160009054906101000a900460ff1660ff1660ff1681526020016001820160019054906101000a900473ffffffffffffffffffffffffffffffffffffffff1673ffffffffffffffffffffffffffffffffffffffff1673ffffffffffffffffffffffffffffffffffffffff168152602001600282018054600181600116156101000203166002900480601f0160208091040260200160405190810160405280929190818152602001828054600181600116156101000203166002900480156122485780601f1061221d57610100808354040283529160200191612248565b820191906000526020600020905b81548152906001019060200180831161222b57829003601f168201915b50505050508152505090506001600560003373ffffffffffffffffffffffffffffffffffffffff1673ffffffffffffffffffffffffffffffffffffffff16815260200190815260200160002060008873ffffffffffffffffffffffffffffffffffffffff1673ffffffffffffffffffffffffffffffffffffffff168152602001908152602001600020541115156122de57600080fd5b80600001518160200151826040015183606001518393508260ff1692508090509450945094509450509193509193565b600760009054906101000a900473ffffffffffffffffffffffffffffffffffffffff1681565b60026020528060005260406000206000915090508054600181600116156101000203166002900480601f0160208091040260200160405190810160405280929190818152602001828054600181600116156101000203166002900480156123dc5780601f106123b1576101008083540402835291602001916123dc565b820191906000526020600020905b8154815290600101906020018083116123bf57829003601f168201915b505050505081565b6060600080606080606060008060606123fb612718565b935093509350935083838383600360003373ffffffffffffffffffffffffffffffffffffffff1673ffffffffffffffffffffffffffffffffffffffff168152602001908152602001600020808054806020026020016040519081016040528092919081815260200182805480156124c757602002820191906000526020600020905b8160009054906101000a900473ffffffffffffffffffffffffffffffffffffffff1673ffffffffffffffffffffffffffffffffffffffff168152602001906001019080831161247d575b5050505050905098509850985098509850505050509295509295909350565b6060600060606124f4612c4e565b600460003373ffffffffffffffffffffffffffffffffffffffff1673ffffffffffffffffffffffffffffffffffffffff168152602001908152602001600020604080519081016040529081600082018054600181600116156101000203166002900480601f0160208091040260200160405190810160405280929190818152602001828054600181600116156101000203166002900480156125d75780601f106125ac576101008083540402835291602001916125d7565b820191906000526020600020905b8154815290600101906020018083116125ba57829003601f168201915b505050505081526020016001820160009054906101000a900473ffffffffffffffffffffffffffffffffffffffff1673ffffffffffffffffffffffffffffffffffffffff1673ffffffffffffffffffffffffffffffffffffffff1681525050905080600001518160200151600660003373ffffffffffffffffffffffffffffffffffffffff1673ffffffffffffffffffffffffffffffffffffffff1681526020019081526020016000208292508080548060200260200160405190810160405280929190818152602001828054801561270557602002820191906000526020600020905b8160009054906101000a900473ffffffffffffffffffffffffffffffffffffffff1673ffffffffffffffffffffffffffffffffffffffff16815260200190600101908083116126bb575b5050505050905093509350935050909192565b60606000806060612727612c0c565b6000803373ffffffffffffffffffffffffffffffffffffffff1673ffffffffffffffffffffffffffffffffffffffff16815260200190815260200160002060806040519081016040529081600082018054600181600116156101000203166002900480601f01602080910402602001604051908101604052809291908181526020018280546001816001161561010002031660029004801561280a5780601f106127df5761010080835404028352916020019161280a565b820191906000526020600020905b8154815290600101906020018083116127ed57829003601f168201915b505050505081526020016001820160009054906101000a900460ff1660ff1660ff1681526020016001820160019054906101000a900473ffffffffffffffffffffffffffffffffffffffff1673ffffffffffffffffffffffffffffffffffffffff1673ffffffffffffffffffffffffffffffffffffffff168152602001600282018054600181600116156101000203166002900480601f01602080910402602001604051908101604052809291908181526020018280546001816001161561010002031660029004801561291f5780601f106128f45761010080835404028352916020019161291f565b820191906000526020600020905b81548152906001019060200180831161290257829003601f168201915b5050505050815250509050806000015181602001518260400151836060015183935080905094509450945094505090919293565b60036020528160005260406000208181548110151561296e57fe5b906000526020600020016000915091509054906101000a900473ffffffffffffffffffffffffffffffffffffffff1681565b6129a8612c0c565b6000803373ffffffffffffffffffffffffffffffffffffffff1673ffffffffffffffffffffffffffffffffffffffff16815260200190815260200160002060806040519081016040529081600082018054600181600116156101000203166002900480601f016020809104026020016040519081016040528092919081815260200182805460018160011615610100020316600290048015612a8b5780601f10612a6057610100808354040283529160200191612a8b565b820191906000526020600020905b815481529060010190602001808311612a6e57829003601f168201915b505050505081526020016001820160009054906101000a900460ff1660ff1660ff1681526020016001820160019054906101000a900473ffffffffffffffffffffffffffffffffffffffff1673ffffffffffffffffffffffffffffffffffffffff1673ffffffffffffffffffffffffffffffffffffffff168152602001600282018054600181600116156101000203166002900480601f016020809104026020016040519081016040528092919081815260200182805460018160011615610100020316600290048015612ba05780601f10612b7557610100808354040283529160200191612ba0565b820191906000526020600020905b815481529060010190602001808311612b8357829003601f168201915b505050505081525050905081600960003373ffffffffffffffffffffffffffffffffffffffff1673ffffffffffffffffffffffffffffffffffffffff1681526020019081526020016000209080519060200190612bfe929190612cfe565b508181606001819052505050565b60806040519081016040528060608152602001600060ff168152602001600073ffffffffffffffffffffffffffffffffffffffff168152602001606081525090565b604080519081016040528060608152602001600073ffffffffffffffffffffffffffffffffffffffff1681525090565b828054600181600116156101000203166002900490600052602060002090601f016020900481019282601f10612cbf57805160ff1916838001178555612ced565b82800160010185558215612ced579182015b82811115612cec578251825591602001919060010190612cd1565b5b509050612cfa9190612d7e565b5090565b828054600181600116156101000203166002900490600052602060002090601f016020900481019282601f10612d3f57805160ff1916838001178555612d6d565b82800160010185558215612d6d579182015b82811115612d6c578251825591602001919060010190612d51565b5b509050612d7a9190612d7e565b5090565b612da091905b80821115612d9c576000816000905550600101612d84565b5090565b9056fea165627a7a72305820bcf822134826e7eda91f093f9e1ade802ab35983083cf147986349978d1cabc20029",
  "source": "pragma solidity >=0.4.21 <0.7.0;\nimport \"./Aircraftmaintaince.sol\";\nimport \"./AircraftAdmin.sol\";\n\ncontract Aircraft is Aircraftmaintainer,AircraftAdmin {\n   address public owner;\n   uint public maintainerCount = 0;\n\n  mapping (address => string) public hashInfo;\n\n//   struct Aeroplane { \n//    string filename;\n//    string filetype;\n//    string filesecret;\n// }\n\nconstructor() public {\n    owner = msg.sender;\n  }\n\nmodifier onlyowner() {\n    if (msg.sender == owner) _;\n\n  }\n\n// modifier CheckfileAccess(string memory role,address id,string fileHashId,address pat){\n//         uint256  pos ;\n        \n//         if(keccak256(abi.encodePacked(\"role\"))!=keccak256(abi.encodePacked(\"maintainer\"))){\n//          require(maintainerToAdmin[pat][id] > 0);\n//              pos = maintainerToFile[pat][fileHashId];\n//             require(pos > 0);\n//         }\n//         if(keccak256(abi.encodePacked(\"role\"))!=keccak256(abi.encodePacked(\"Admin\"))){\n//                 pos = patienToFile[id][fileHashId];\n//                 require(pos > 0); \n//         }\n//         _;\n//     }\n\n    function checkProfile(address _user) public view returns(string memory, string memory){\n      maintainer memory p = maintainers[_user];\n      Admin memory d = Admins[_user];\n      \n      if(p.id == _user)\n          return (p.name, 'maintainer');\n      else if(d.id == _user)\n          return (d.name, 'Admin');\n      else\n          return ('default', 'default');\n  }\n\n  function addFile(string memory _hashId) public {\n       maintainer memory p = maintainers[msg.sender];\n        // require (patienToFile[msg.sender][fileHashId]<1);//checking already exist \n\n        hashInfo[msg.sender] = _hashId;\n        \n        p.file = _hashId;\n       \n        // patienToFile[msg.sender][fileHashId]=fileCount;\n        // fileCount=fileCount+1;\n  }\n\nfunction grantAccessToAdmin(address _id) public {\n     maintainer memory p = maintainers[msg.sender];\n        // Admin memory d = Admins[_id];\n\n        // uint pos= p.doctorList.push(_docterId);\n        adminList[msg.sender].push(_id);\n        maintainerToAdmin[msg.sender][_id] = maintainerCount;\n        maintainerList[_id].push(msg.sender);\n        maintainerCount = maintainerCount+1;\n}\n\n  //  function air(string _hashId,string memory _filename, string memory _filetype, string memory _filesecret) public {\n\n  //   hashInfo[_hashId] = Aeroplane({filename : _filename, filetype : _filetype,filesecret : _filesecret});\n   \n  // }\n\n  function getmaintainerInfoForAdmin(address _id) public view returns(string memory _name,uint age,address id,string memory files ){\n      maintainer memory p = maintainers[_id]; \n      require(AdminTomaintainer[msg.sender][_id]>1);\n      return  (p.name,p.age,p.id,p.file);\n    }\n\nfunction getFileInfomaintainer(address _id, string memory _fileHashId) public view returns (string memory name, uint8 age,address id,string memory _file,address[] memory _list){\n            (string memory  __name ,uint8 __age,address __id,string memory __file) = getinfomaintaince();\n        return(__name,__age,__id,__file,adminList[msg.sender]);\n     }\n\n}",
  "sourcePath": "/home/smritigupta/aeroplane-maintaince/src/contracts/Aircraft.sol",
  "compiler": {
    "name": "solc",
    "version": "0.5.0+commit.1d4f565a.Emscripten.clang"
  },
  "schemaVersion": "3.0.1",
  "updatedAt": "2020-06-22T08:17:45.464Z",
  "devdoc": {
    "methods": {}
  },
  "userdoc": {
    "methods": {}
  }
}